{
  "contractName": "Factory",
  "abi": [
    {
      "inputs": [
        {
          "internalType": "address",
          "name": "tokenA",
          "type": "address"
        },
        {
          "internalType": "address",
          "name": "tokenB",
          "type": "address"
        }
      ],
      "name": "createPair",
      "outputs": [
        {
          "internalType": "address",
          "name": "pair",
          "type": "address"
        }
      ],
      "stateMutability": "nonpayable",
      "type": "function"
    }
  ],
  "bytecode": "0x608060405234801561001057600080fd5b5061016b806100206000396000f3fe608060405234801561001057600080fd5b506004361061002b5760003560e01c8063c9c6539614610030575b600080fd5b61004a600480360381019061004591906100cb565b610060565b604051610057919061011a565b60405180910390f35b600092915050565b600080fd5b600073ffffffffffffffffffffffffffffffffffffffff82169050919050565b60006100988261006d565b9050919050565b6100a88161008d565b81146100b357600080fd5b50565b6000813590506100c58161009f565b92915050565b600080604083850312156100e2576100e1610068565b5b60006100f0858286016100b6565b9250506020610101858286016100b6565b9150509250929050565b6101148161008d565b82525050565b600060208201905061012f600083018461010b565b9291505056fea2646970667358221220b2a10ffe33405c01cd6993b17f4176e138d6f263ba437b86b8901d60a5b69c7564736f6c634300080a0033",
  "immutableReferences": {},
  "source": "// SPDX-License-Identifier: MIT\r\n\r\npragma solidity >=0.4.22 <0.9.0;\r\n\r\ncontract Factory {\r\n    function createPair(address tokenA, address tokenB)\r\n        external\r\n        returns (address pair)\r\n    {}\r\n}\r\n",
  "sourcePath": "C:\\new\\contracts\\Factory.sol",
  "compiler": {
    "name": "solc",
    "version": "0.8.10+commit.fc410830.Emscripten.clang"
  },
  "schemaVersion": "3.4.3",
  "updatedAt": "2021-12-01T13:07:05.068Z",
  "networkType": "ethereum",
  "devdoc": {
    "kind": "dev",
    "methods": {},
    "version": 1
  },
  "userdoc": {
    "kind": "user",
    "methods": {},
    "version": 1
  }
}