{
  "contractName": "Router",
  "abi": [
    {
      "inputs": [
        {
          "internalType": "address",
          "name": "tokenA",
          "type": "address"
        },
        {
          "internalType": "address",
          "name": "tokenB",
          "type": "address"
        },
        {
          "internalType": "uint256",
          "name": "amountADesired",
          "type": "uint256"
        },
        {
          "internalType": "uint256",
          "name": "amountBDesired",
          "type": "uint256"
        },
        {
          "internalType": "uint256",
          "name": "amountAMin",
          "type": "uint256"
        },
        {
          "internalType": "uint256",
          "name": "amountBMin",
          "type": "uint256"
        },
        {
          "internalType": "address",
          "name": "to",
          "type": "address"
        },
        {
          "internalType": "uint256",
          "name": "deadline",
          "type": "uint256"
        }
      ],
      "name": "addLiquidity",
      "outputs": [
        {
          "internalType": "uint256",
          "name": "amountA",
          "type": "uint256"
        },
        {
          "internalType": "uint256",
          "name": "amountB",
          "type": "uint256"
        },
        {
          "internalType": "uint256",
          "name": "liquidity",
          "type": "uint256"
        }
      ],
      "stateMutability": "nonpayable",
      "type": "function"
    }
  ],
  "bytecode": "0x608060405234801561001057600080fd5b50610240806100206000396000f3fe608060405234801561001057600080fd5b506004361061002b5760003560e01c8063e8e3370014610030575b600080fd5b61004a6004803603810190610045919061010e565b610062565b604051610059939291906101d3565b60405180910390f35b6000806000985098509895505050505050565b600080fd5b600073ffffffffffffffffffffffffffffffffffffffff82169050919050565b60006100a58261007a565b9050919050565b6100b58161009a565b81146100c057600080fd5b50565b6000813590506100d2816100ac565b92915050565b6000819050919050565b6100eb816100d8565b81146100f657600080fd5b50565b600081359050610108816100e2565b92915050565b600080600080600080600080610100898b03121561012f5761012e610075565b5b600061013d8b828c016100c3565b985050602061014e8b828c016100c3565b975050604061015f8b828c016100f9565b96505060606101708b828c016100f9565b95505060806101818b828c016100f9565b94505060a06101928b828c016100f9565b93505060c06101a38b828c016100c3565b92505060e06101b48b828c016100f9565b9150509295985092959890939650565b6101cd816100d8565b82525050565b60006060820190506101e860008301866101c4565b6101f560208301856101c4565b61020260408301846101c4565b94935050505056fea2646970667358221220f3a35932b6e362985992097d779b67ec4196d2302d0a3df099ff5ceac9ebe06b64736f6c634300080a0033",
  "immutableReferences": {},
  "source": "// SPDX-License-Identifier: MIT\r\n\r\npragma solidity >=0.4.22 <0.9.0;\r\n\r\ncontract Router {\r\n    function addLiquidity(\r\n        address tokenA,\r\n        address tokenB,\r\n        uint256 amountADesired,\r\n        uint256 amountBDesired,\r\n        uint256 amountAMin,\r\n        uint256 amountBMin,\r\n        address to,\r\n        uint256 deadline\r\n    )\r\n        external\r\n        returns (\r\n            uint256 amountA,\r\n            uint256 amountB,\r\n            uint256 liquidity\r\n        )\r\n    {}\r\n}\r\n",
  "sourcePath": "C:\\new\\contracts\\Router.sol",
  "compiler": {
    "name": "solc",
    "version": "0.8.10+commit.fc410830.Emscripten.clang"
  },
  "schemaVersion": "3.4.3",
  "updatedAt": "2021-12-01T13:07:05.071Z",
  "networkType": "ethereum",
  "devdoc": {
    "kind": "dev",
    "methods": {},
    "version": 1
  },
  "userdoc": {
    "kind": "user",
    "methods": {},
    "version": 1
  }
}